:100000000C945D000C9485000C9485000C94850084
:100010000C9485000C9485000C9485000C9485004C
:100020000C9485000C9485000C9485000C9485003C
:100030000C9485000C9485000C9485000C9485002C
:100040000C949C020C9485000C940C030C94E60216
:100050000C9485000C9485000C9485000C9485000C
:100060000C9485000C94850000000008000201003B
:100070000003040700000000000000000000000072
:10008000250028002B0000000000240027002A0083
:10009000040404040404040402020202020203032E
:1000A0000303030301020408102040800102040836
:1000B0001020010204081020300411241FBECFEFCD
:1000C000D8E0DEBFCDBF11E0A0E0B1E0EAECF8E09F
:1000D00002C005900D92AC35B107D9F722E0ACE52E
:1000E000B1E001C01D92A230B207E1F710E0CDE50A
:1000F000D0E004C02197FE010E945D04CC35D107F9
:10010000C9F70E943E030C9463040C94000090E035
:10011000FC01EC55FF4F249180579F4FFC018491C7
:10012000882399F090E0880F991FFC01EA57FF4F50
:10013000A591B491FC01E458FF4F859194918FB73C
:10014000F894EC91E22BEC938FBF089590E0FC01C2
:10015000E859FF4F2491FC01EC55FF4F3491FC010D
:10016000E057FF4FE491EE23C9F0222339F023300A
:1001700001F1A8F4213019F1223029F1F0E0EE0F5D
:10018000FF1FE458FF4FA591B4918FB7F894EC91FD
:10019000611126C030953E233C938FBF08952730D0
:1001A000A9F02830C9F0243049F7809180008F7D74
:1001B00003C0809180008F7780938000DFCF84B56B
:1001C0008F7784BDDBCF84B58F7DFBCF8091B0006E
:1001D0008F778093B000D2CF8091B0008F7DF9CF20
:1001E0003E2BDACF3FB7F8948091FE019091FF014A
:1001F000A0910002B091010226B5A89B05C02F3F37
:1002000019F00196A11DB11D3FBFBA2FA92F982F3C
:100210008827BC01CD01620F711D811D911D42E037
:10022000660F771F881F991F4A95D1F708958F92FF
:100230009F92AF92BF92CF92DF92EF92FF924B01CB
:100240005C010E94F2006B017C010E94F2006C19BB
:100250007D098E099F09683E734081059105A8F3C9
:1002600021E0821A9108A108B10888EEC80E83E047
:10027000D81EE11CF11C81149104A104B10429F7DA
:10028000FF90EF90DF90CF90BF90AF909F908F90B6
:100290000895AF92BF92CF92DF92EF92FF920F93A9
:1002A0001F93CF93DF936C017B018B01040F151F0C
:1002B000EB015E01AE18BF08C017D10759F0699174
:1002C000D601ED91FC910190F081E02DC6010995D8
:1002D000892B79F7C501DF91CF911F910F91FF9085
:1002E000EF90DF90CF90BF90AF900895FC01538DB9
:1002F000448D252F30E0842F90E0821B930B541700
:1003000010F0CF96089501970895FC01918D828D8C
:10031000981761F0A28DAE0FBF2FB11D5D968C9125
:10032000928D9F5F9F73928F90E008958FEF9FEF64
:100330000895FC01918D828D981731F0828DE80F20
:10034000F11D858D90E008958FEF9FEF0895FC01DA
:10035000918D228D892F90E0805C9F4F821B9109A7
:100360008F73992708958CE591E00E94A70121E001
:10037000892B09F420E0822F089580E090E0892BFA
:1003800029F00E94B30181110C9400000895FC0132
:10039000A48DA80FB92FB11DA35ABF4F2C91848DE6
:1003A00090E001968F739927848FA689B7892C9343
:1003B000A089B1898C91837080648C93938D848D96
:1003C000981306C00288F389E02D80818F7D808399
:1003D0000895EF92FF920F931F93CF93DF93EC0159
:1003E00081E0888F9B8D8C8D98131AC0E889F989DC
:1003F000808185FF15C09FB7F894EE89FF896083DF
:10040000E889F98980818370806480839FBF81E05F
:1004100090E0DF91CF911F910F91FF90EF900895A1
:10042000F62E0B8D10E00F5F1F4F0F731127E02E7C
:100430008C8D8E110CC00FB607FCFACFE889F989B4
:10044000808185FFF5CFCE010E94C701F1CFEB8DF2
:10045000EC0FFD2FF11DE35AFF4FF0829FB7F89488
:100460000B8FEA89FB8980818062CFCFCF93DF93A6
:10047000EC01888D8823B9F0AA89BB89E889F989BC
:100480008C9185FD03C0808186FD0DC00FB607FCF1
:10049000F7CF8C9185FFF2CF808185FFEDCFCE0124
:1004A0000E94C701E9CFDF91CF910895CF93DF93E9
:1004B000D82FC62F617083E00E94A6006C2F70E0D9
:1004C0007595679584E00E94A600C5E06D2F617068
:1004D0008C2F0E94A600D695CF5FCD30B9F760E093
:1004E00082E00E94A60061E070E080E090E00E945F
:1004F000170161E082E00E94A60061E070E080E008
:1005000090E00E94170160E082E00E94A60062E392
:1005100070E080E090E0DF91CF910C941701CF93D1
:10052000DF93EC018991882321F062E00E9456025A
:10053000F9CFDF91CF9108951F920F920FB60F92CE
:1005400011242F933F938F939F93AF93BF938091E9
:10055000FA019091FB01A091FC01B091FD01309155
:10056000F90123E0230F2D3758F50196A11DB11D88
:100570002093F9018093FA019093FB01A093FC0171
:10058000B093FD018091FE019091FF01A0910002C6
:10059000B09101020196A11DB11D8093FE019093BF
:1005A000FF01A0930002B0930102BF91AF919F9110
:1005B0008F913F912F910F900FBE0F901F90189524
:1005C00026E8230F0296A11DB11DD2CF1F920F92D4
:1005D0000FB60F9211242F933F934F935F936F9316
:1005E0007F938F939F93AF93BF93EF93FF938CE58C
:1005F00091E00E94C701FF91EF91BF91AF919F9150
:100600008F917F916F915F914F913F912F910F90BB
:100610000FBE0F901F9018951F920F920FB60F925A
:1006200011242F938F939F93EF93FF93E0916C018D
:10063000F0916D018081E0917201F091730182FD72
:100640001BC09081809175018F5F8F73209176011F
:10065000821741F0E0917501F0E0E45AFE4F958F6A
:1006600080937501FF91EF919F918F912F910F9042
:100670000FBE0F901F9018958081F4CF789484B5A9
:10068000826084BD84B5816084BD85B5826085BD8E
:1006900085B5816085BD80916E00816080936E001C
:1006A000109281008091810082608093810080910E
:1006B00081008160809381008091800081608093BF
:1006C00080008091B10084608093B1008091B0007F
:1006D00081608093B00080917A00846080937A007A
:1006E00080917A00826080937A0080917A008160A4
:1006F00080937A0080917A00806880937A001092CB
:10070000C100E0916C01F0916D0182E08083E09185
:100710006801F09169011082E0916A01F0916B012A
:100720008FEC808310927401E0917001F09171015F
:1007300086E08083E0916E01F0916F01808180619D
:100740008083E0916E01F0916F01808188608083E9
:10075000E0916E01F0916F01808180688083E0916B
:100760006E01F0916F0180818F7D808382E00E9415
:10077000870083E00E94870084E00E948700C5E034
:100780008C2F0E948700CF5FCD30D1F700E010E0C2
:1007900060E080E00E94560261E080E00E94560224
:1007A00082E191E00E948F0268EE73E080E090E0C9
:1007B0000E941701C1E462E08C2F0E945602CF5FB5
:1007C000CB37C9F787E291E00E948F0268EE73E0B1
:1007D00080E090E00E94170183E391E00E948F0285
:1007E00068EE73E080E090E00E941701D0E0C0E086
:1007F00060E08C2F0E9456022196C11581E0D80737
:10080000B9F78CE291E00E948F0268EE73E080E01D
:1008100090E00E94170187E491E00E948F02D0E0EF
:10082000C0E061E08C2F0E9456022196C11581E044
:10083000D807B9F78CE291E00E948F0268EE73E06E
:1008400080E090E00E9417010115110509F4A0CF86
:100850000E94B301882309F49BCF0E94000098CF27
:10086000ECE5F1E01382128288EE93E0A0E0B0E0C4
:1008700084839583A683B78384E091E0918380830A
:1008800085EC90E09587848784EC90E09787868755
:1008900080EC90E0918B808B81EC90E0938B828B4D
:1008A00082EC90E0958B848B86EC90E0978B868B26
:1008B000118E128E138E148E0895EE0FFF1F059069
:0A08C000F491E02D0994F894FFCFA5
:1008CA0000000000E901490176013602A70185010D
:1008DA00990154657374696E67206D6573736167F6
:1008EA0065202E2E2E2000202E2E2E20646F6E655F
:1008FA002E200054657374696E672076616C756585
:10090A0020312E2E2E200054657374696E6720766E
:0C091A00616C756520322E2E2E2000002E
:00000001FF
